{
  "contractName": "SmartContractTest",
  "abi": [
    {
      "constant": false,
      "inputs": [
        {
          "name": "_firstName",
          "type": "bytes32"
        },
        {
          "name": "_lastName",
          "type": "bytes32"
        },
        {
          "name": "_email",
          "type": "bytes32"
        },
        {
          "name": "_shares",
          "type": "uint256"
        }
      ],
      "name": "addPerson",
      "outputs": [
        {
          "name": "success",
          "type": "bool"
        }
      ],
      "payable": true,
      "stateMutability": "payable",
      "type": "function"
    },
    {
      "constant": true,
      "inputs": [],
      "name": "value",
      "outputs": [
        {
          "name": "",
          "type": "uint256"
        }
      ],
      "payable": false,
      "stateMutability": "view",
      "type": "function"
    },
    {
      "constant": true,
      "inputs": [],
      "name": "getPeople",
      "outputs": [
        {
          "name": "",
          "type": "bytes32[]"
        },
        {
          "name": "",
          "type": "bytes32[]"
        },
        {
          "name": "",
          "type": "bytes32[]"
        },
        {
          "name": "",
          "type": "uint256[]"
        },
        {
          "name": "",
          "type": "uint256[]"
        }
      ],
      "payable": false,
      "stateMutability": "view",
      "type": "function"
    },
    {
      "constant": false,
      "inputs": [
        {
          "name": "x",
          "type": "uint256"
        }
      ],
      "name": "set",
      "outputs": [],
      "payable": false,
      "stateMutability": "nonpayable",
      "type": "function"
    },
    {
      "constant": true,
      "inputs": [],
      "name": "get",
      "outputs": [
        {
          "name": "",
          "type": "uint256"
        }
      ],
      "payable": false,
      "stateMutability": "view",
      "type": "function"
    },
    {
      "constant": true,
      "inputs": [
        {
          "name": "",
          "type": "uint256"
        }
      ],
      "name": "shareholders",
      "outputs": [
        {
          "name": "weight",
          "type": "uint256"
        },
        {
          "name": "claimed",
          "type": "bool"
        },
        {
          "name": "delegate",
          "type": "address"
        },
        {
          "name": "firstName",
          "type": "bytes32"
        },
        {
          "name": "lastName",
          "type": "bytes32"
        },
        {
          "name": "email",
          "type": "bytes32"
        },
        {
          "name": "shares",
          "type": "uint256"
        }
      ],
      "payable": false,
      "stateMutability": "view",
      "type": "function"
    },
    {
      "constant": true,
      "inputs": [],
      "name": "numSH",
      "outputs": [
        {
          "name": "",
          "type": "uint256"
        }
      ],
      "payable": false,
      "stateMutability": "view",
      "type": "function"
    },
    {
      "inputs": [
        {
          "name": "_numSHolders",
          "type": "uint256"
        }
      ],
      "payable": false,
      "stateMutability": "nonpayable",
      "type": "constructor"
    }
  ],
  "bytecode": "0x6060604052341561000f57600080fd5b604051602080610a6783398101604052808051906020019091905050336000806101000a81548173ffffffffffffffffffffffffffffffffffffffff021916908373ffffffffffffffffffffffffffffffffffffffff16021790555080600381905550506109e5806100826000396000f300606060405260043610610083576000357c0100000000000000000000000000000000000000000000000000000000900463ffffffff1680630f83576c146100885780633fa4f245146100df5780634f995d081461010857806360fe47b1146102925780636d4ce63c146102b5578063ab377daa146102de578063f7776f2314610387575b600080fd5b6100c560048080356000191690602001909190803560001916906020019091908035600019169060200190919080359060200190919050506103b0565b604051808215151515815260200191505060405180910390f35b34156100ea57600080fd5b6100f26104f5565b6040518082815260200191505060405180910390f35b341561011357600080fd5b61011b6104fb565b60405180806020018060200180602001806020018060200186810386528b818151815260200191508051906020019060200280838360005b8381101561016e578082015181840152602081019050610153565b5050505090500186810385528a818151815260200191508051906020019060200280838360005b838110156101b0578082015181840152602081019050610195565b50505050905001868103845289818151815260200191508051906020019060200280838360005b838110156101f25780820151818401526020810190506101d7565b50505050905001868103835288818151815260200191508051906020019060200280838360005b83811015610234578082015181840152602081019050610219565b50505050905001868103825287818151815260200191508051906020019060200280838360005b8381101561027657808201518184015260208101905061025b565b505050509050019a505050505050505050505060405180910390f35b341561029d57600080fd5b6102b360048080359060200190919050506107e3565b005b34156102c057600080fd5b6102c86107f0565b6040518082815260200191505060405180910390f35b34156102e957600080fd5b6102ff60048080359060200190919050506107fa565b60405180888152602001871515151581526020018673ffffffffffffffffffffffffffffffffffffffff1673ffffffffffffffffffffffffffffffffffffffff16815260200185600019166000191681526020018460001916600019168152602001836000191660001916815260200182815260200197505050505050505060405180910390f35b341561039257600080fd5b61039a610878565b6040518082815260200191505060405180910390f35b60006103ba61087e565b85816060019060001916908160001916815250508481608001906000191690816000191681525050838160a001906000191690816000191681525050828160c00181815250506004805480600101828161041491906108dd565b916000526020600020906006020160008390919091506000820151816000015560208201518160010160006101000a81548160ff02191690831515021790555060408201518160010160016101000a81548173ffffffffffffffffffffffffffffffffffffffff021916908373ffffffffffffffffffffffffffffffffffffffff160217905550606082015181600201906000191690556080820151816003019060001916905560a0820151816004019060001916905560c08201518160050155505050826003600082825401925050819055506001915050949350505050565b60025481565b61050361090f565b61050b61090f565b61051361090f565b61051b610923565b610523610923565b600061052d61090f565b61053561090f565b61053d61090f565b610545610923565b61054d610923565b600061055761087e565b60048054905097508760405180591061056d5750595b908082528060200260200182016040525096508760405180591061058e5750595b90808252806020026020018201604052509550876040518059106105af5750595b90808252806020026020018201604052509450876040518059106105d05750595b90808252806020026020018201604052509350876040518059106105f15750595b90808252806020026020018201604052509250600091505b878210156107c55760048281548110151561062057fe5b906000526020600020906006020160e06040519081016040529081600082015481526020016001820160009054906101000a900460ff161515151581526020016001820160019054906101000a900473ffffffffffffffffffffffffffffffffffffffff1673ffffffffffffffffffffffffffffffffffffffff1673ffffffffffffffffffffffffffffffffffffffff16815260200160028201546000191660001916815260200160038201546000191660001916815260200160048201546000191660001916815260200160058201548152505090508060600151878381518110151561070a57fe5b9060200190602002019060001916908160001916815250508060800151868381518110151561073557fe5b9060200190602002019060001916908160001916815250508060a00151858381518110151561076057fe5b9060200190602002019060001916908160001916815250508060c00151848381518110151561078b57fe5b906020019060200201818152505060035483838151811015156107aa57fe5b90602001906020020181815250508180600101925050610609565b86868686869c509c509c509c509c5050505050505050509091929394565b600a810260038190555050565b6000600354905090565b60048181548110151561080957fe5b90600052602060002090600602016000915090508060000154908060010160009054906101000a900460ff16908060010160019054906101000a900473ffffffffffffffffffffffffffffffffffffffff16908060020154908060030154908060040154908060050154905087565b60035481565b60e06040519081016040528060008152602001600015158152602001600073ffffffffffffffffffffffffffffffffffffffff168152602001600080191681526020016000801916815260200160008019168152602001600081525090565b81548183558181151161090a576006028160060283600052602060002091820191016109099190610937565b5b505050565b602060405190810160405280600081525090565b602060405190810160405280600081525090565b6109b691905b808211156109b2576000808201600090556001820160006101000a81549060ff02191690556001820160016101000a81549073ffffffffffffffffffffffffffffffffffffffff021916905560028201600090556003820160009055600482016000905560058201600090555060060161093d565b5090565b905600a165627a7a72305820639146adf65511ff963aeb4db02181de6543f5e61e257fb00f3878a7a1f6cf390029",
  "source": "pragma solidity ^0.4.8;\n\ncontract SmartContractTest {\n\n    address owner;\n    address apply;\n    uint public value;\n    uint public numSH;\n\n    ShareHolders[] public shareholders;\n    function SmartContractTest(uint _numSHolders) public{\n        owner = msg.sender;\n        numSH =_numSHolders;\n\n    }\n\n    struct ShareHolders {\n    uint weight; // weight is accumulated by delegation\n    bool claimed;  // if true, that person already claimed account\n    address delegate; // person delegated to\n    bytes32 firstName; //Share holders name\n    bytes32 lastName; //Share holders name\n    bytes32 email; //Share holders email\n    uint shares; // number of accumulated Shares\n    }\n\n    function addPerson(bytes32 _firstName, bytes32 _lastName, bytes32 _email, uint _shares) payable public returns (bool success) {\n        ShareHolders memory newPerson;\n        newPerson.firstName = _firstName;\n        newPerson.lastName = _lastName;\n        newPerson.email = _email;\n        newPerson.shares = _shares;\n        shareholders.push(newPerson);\n        numSH += _shares;\n        return true;\n    }\n\n    function getPeople() public constant returns (bytes32[], bytes32[], bytes32[], uint[], uint[]) {\n\n        uint length = shareholders.length;\n\n        bytes32[] memory firstNames = new bytes32[](length);\n        bytes32[] memory lastNames = new bytes32[](length);\n        bytes32[] memory email = new bytes32[](length);\n        uint[] memory shares = new uint[](length);\n        uint[] memory percent = new uint[](length);\n\n        for (uint i = 0; i < length; i++) {\n            ShareHolders memory currentPerson;\n            currentPerson = shareholders[i];\n            firstNames[i] = currentPerson.firstName;\n            lastNames[i] = currentPerson.lastName;\n            email[i] = currentPerson.email;\n            shares[i] = currentPerson.shares;\n            percent[i] = numSH;\n\n        }\n        return (firstNames, lastNames, email,shares, percent);\n    }\n\n    function set(uint x) public {\n        numSH = x * 10;\n    }\n\n    function get() public constant returns (uint) {\n        return numSH;\n    }\n}",
  "sourcePath": "/Users/jlmconsulting/PhpstormProjects/smartcontract-test/cal-smart-contract/contracts/SmartContractTest.sol",
  "compiler": {
    "name": "solc",
    "version": "0.4.18+commit.9cf6e910.Emscripten.clang"
  },
  "schemaVersion": "1.0.1",
  "updatedAt": "2018-01-06T12:21:02.756Z"
}